:1000000000308A00312800000030F80006389200E5
:10001000FE30831692008312221122088316870075
:10002000831207110C30970083169B019C0101304D
:100030009D0083128A110A124A28233084008313F8
:100040000008031930280630F800F701F70B2628BE
:10005000F80B25287B30F700F70B2C28800B232882
:10006000080003081F398300A101A001FF30A2008E
:10007000831603170908C039890003131F129F1242
:1000800000300317880083128701880189018313D8
:1000900003130428A101A001A108031D6D28200855
:1000A000FE3C031C6D282108F9002008F800F90C1B
:1000B000F80CF90CF80CF90C78089500F90C790C8F
:1000C0003039F7001708CF39770497000530A300BF
:1000D0001D20A00A0319A10A4C28A101FF30A0008D
:1000E000A008031D7628A108031991282108F9000A
:1000F0002008F800F90CF80CF90CF80CF90C780849
:100100009500F90C790C3039F7001708CF397704CE
:1001100097000530A3001D2020080319A103A003A8
:0601200070284A2863006C
:04400E00E22FFF3F5F
:00000001FF
;PIC16F887
;CRC=9BD0  CREATED="24-feb.-22 13:36"
