:1000000000308A0018280000233084008313000881
:10001000031917280630F800F701F70B0D28F80B25
:100020000C287B30F700F70B1328800B0A280800F8
:1000300003081F398300A101A001FF30A20083162D
:1000400003170908C039890003131F129F120030DB
:100050000317880083128701880189018313003008
:10006000F800063803139200FE30831692008312C4
:100070002211220883168700831207110C30970083
:1000800083169B019C0101309D008312A101A001F8
:10009000A108031D69282008FE3C031C69282108CB
:1000A000F9002008F800F90CF80CF90CF80CF90C20
:1000B00078089500F90C790C3039F7001708CF391A
:1000C000770497000530A3000420A00A0319A10AB1
:1000D0004828A101FF30A000A008031D7228A10834
:1000E00003198D282108F9002008F800F90CF80CF4
:1000F000F90CF80CF90C78089500F90C790C3039EA
:10010000F7001708CF39770497000530A3000420C3
:0E01100020080319A103A0036C2846286300F1
:04400E00E22FFF3F5F
:00000001FF
;PIC16F887
;CRC=71A3  CREATED="29-ago.-23 16:28"
