:1000000000308A002B2800000030F80006389200EB
:10001000FE30831692008312221122088316870075
:10002000831207110C3097008A110A123C282330E2
:1000300084008313000803192A280630F800F7010A
:10004000F70B2028F80B1F287B30F700F70B26282A
:10005000800B1D28080003081F398300A101A0019F
:10006000FF30A20083161F149F141F159F11073025
:100070009C00831383120428A101A001A108031D81
:100080005F282008FE3C031C5F282108F900200897
:10009000F800F90CF80CF90CF80CF90C780895003C
:1000A000F90C790C3039F7001708CF39770497002D
:1000B0000530A3001720A00A0319A10A3E28A101B8
:1000C000FF30A000A008031D6828A1080319832899
:1000D0002108F9002008F800F90CF80CF90CF80CCC
:1000E000F90C78089500F90C790C3039F7001708ED
:1000F000CF39770497000530A30017202008031993
:0A010000A103A00362283C2863005D
:02400E00723FFF
:00000001FF
;PIC16F877A
;CRC=E064  CREATED="24-feb.-22 14:08"
