:1000000000308A0018280000233084008313000881
:10001000031917280630F800F701F70B0D28F80B25
:100020000C287B30F700F70B1328800B0A280800F8
:1000300003081F398300A101A001FF30A20083162D
:100040001F149F141F159F1107309C00831300304D
:10005000F800063883129200FE3083169200831255
:100060002211220883168700831207110C30970093
:10007000A101A001A108031D5B282008FE3C031C70
:100080005B282108F9002008F800F90CF80CF90C9D
:10009000F80CF90C78089500F90C790C3039F70058
:1000A0001708CF39770497000530A3000420A00A71
:1000B0000319A10A3A28A101FF30A000A008031DDE
:1000C0006428A10803197F282108F9002008F800F6
:1000D000F90CF80CF90CF80CF90C78089500F90CEF
:1000E000790C3039F7001708CF39770497000530BD
:1000F000A300042020080319A103A0035E283828C8
:0201000063009A
:02400E00723FFF
:00000001FF
;PIC16F877A
;CRC=ED22  CREATED="29-ago.-23 16:26"
